{
  "contractName": "test",
  "abi": [
    {
      "constant": true,
      "inputs": [
        {
          "name": "",
          "type": "address"
        }
      ],
      "name": "balances",
      "outputs": [
        {
          "name": "",
          "type": "uint256"
        }
      ],
      "payable": false,
      "stateMutability": "view",
      "type": "function"
    },
    {
      "anonymous": false,
      "inputs": [
        {
          "indexed": false,
          "name": "",
          "type": "uint8"
        }
      ],
      "name": "report",
      "type": "event"
    },
    {
      "constant": false,
      "inputs": [],
      "name": "setGoStraight",
      "outputs": [],
      "payable": false,
      "stateMutability": "nonpayable",
      "type": "function"
    },
    {
      "constant": true,
      "inputs": [],
      "name": "getChoice",
      "outputs": [
        {
          "name": "",
          "type": "uint8"
        }
      ],
      "payable": false,
      "stateMutability": "view",
      "type": "function"
    },
    {
      "constant": true,
      "inputs": [],
      "name": "getDefaultChoice",
      "outputs": [
        {
          "name": "",
          "type": "uint8"
        }
      ],
      "payable": false,
      "stateMutability": "view",
      "type": "function"
    },
    {
      "constant": false,
      "inputs": [],
      "name": "getC",
      "outputs": [],
      "payable": false,
      "stateMutability": "nonpayable",
      "type": "function"
    }
  ],
  "bytecode": "0x608060405261000c61007a565b604051809103906000f080158015610028573d6000803e3d6000fd5b506001806101000a81548173ffffffffffffffffffffffffffffffffffffffff021916908373ffffffffffffffffffffffffffffffffffffffff16021790555034801561007457600080fd5b50610089565b60405160c18061039983390190565b610301806100986000396000f30060806040526004361061006d576000357c0100000000000000000000000000000000000000000000000000000000900463ffffffff16806327e235e31461007257806346aadaa5146100c957806367cb61b6146100e0578063843f725814610119578063a2375d1e14610152575b600080fd5b34801561007e57600080fd5b506100b3600480360381019080803573ffffffffffffffffffffffffffffffffffffffff169060200190929190505050610169565b6040518082815260200191505060405180910390f35b3480156100d557600080fd5b506100de610181565b005b3480156100ec57600080fd5b506100f56101a7565b6040518082600381111561010557fe5b60ff16815260200191505060405180910390f35b34801561012557600080fd5b5061012e6101be565b6040518082600381111561013e57fe5b60ff16815260200191505060405180910390f35b34801561015e57600080fd5b5061016761020d565b005b60006020528060005260406000206000915090505481565b6002600160006101000a81548160ff021916908360038111156101a057fe5b0217905550565b6000600160009054906101000a900460ff16905090565b60007f892d0f5051644e8e779c841d630f90170cf0276aa477abc468ccc9e6d1cddefe6002604051808260038111156101f357fe5b60ff16815260200191505060405180910390a16002905090565b6001809054906101000a900473ffffffffffffffffffffffffffffffffffffffff1673ffffffffffffffffffffffffffffffffffffffff166373d4a13a6040518163ffffffff167c0100000000000000000000000000000000000000000000000000000000028152600401602060405180830381600087803b15801561029257600080fd5b505af11580156102a6573d6000803e3d6000fd5b505050506040513d60208110156102bc57600080fd5b81019080805190602001909291905050506002819055505600a165627a7a723058206eb88a0981faecabb213326229cf6ee2b8af8c407963d6314261b3e61aa716a400296080604052602a600055348015601457600080fd5b50609e806100236000396000f300608060405260043610603f576000357c0100000000000000000000000000000000000000000000000000000000900463ffffffff16806373d4a13a146044575b600080fd5b348015604f57600080fd5b506056606c565b6040518082815260200191505060405180910390f35b600054815600a165627a7a723058209668ee92f5fad10911540ec9943ab70ec15b7e711713b73a56edfe97b81c64c30029",
  "source": "pragma solidity ^0.4.0;\r\n\r\ncontract C {\r\n    uint public data = 42;\r\n}\r\n\r\ncontract test {\r\n    mapping (address => uint) public balances;\r\n    enum ActionChoices { GoLeft, GoRight, GoStraight, SitStill }\r\n    ActionChoices choice;\r\n    ActionChoices constant defaultChoice = ActionChoices.GoStraight;\r\n    C c = new C();\r\n    uint local;\r\n    event report(ActionChoices);\r\n    function setGoStraight() public {\r\n        choice = ActionChoices.GoStraight;\r\n    }\r\n    function getChoice() public view returns (ActionChoices) {\r\n        return choice;\r\n    }\r\n    function getDefaultChoice() public view returns (ActionChoices) {\r\n        emit report(defaultChoice);\r\n\r\n        return ActionChoices(defaultChoice);\r\n    }\r\n\r\n    function getC() public {\r\n        local = c.data();\r\n    }\r\n}\r\n\r\n",
  "sourcePath": "D:\\WorkStation\\WEB\\Project\\ShoppingSite(Angular)\\ethDApp\\contracts\\Example.sol",
  "compiler": {
    "name": "solc",
    "version": "0.4.24+commit.e67f0147.Emscripten.clang"
  },
  "schemaVersion": "2.0.1",
  "updatedAt": "2023-08-23T00:34:53.296Z"
}